{
  "contractName": "Demo",
  "abi": [
    {
      "constant": true,
      "inputs": [],
      "name": "lgeAddress",
      "outputs": [
        {
          "name": "",
          "type": "address"
        }
      ],
      "payable": false,
      "stateMutability": "view",
      "type": "function"
    },
    {
      "constant": true,
      "inputs": [],
      "name": "kebhanaAddress",
      "outputs": [
        {
          "name": "",
          "type": "address"
        }
      ],
      "payable": false,
      "stateMutability": "view",
      "type": "function"
    },
    {
      "constant": true,
      "inputs": [],
      "name": "idbinsAddress",
      "outputs": [
        {
          "name": "",
          "type": "address"
        }
      ],
      "payable": false,
      "stateMutability": "view",
      "type": "function"
    },
    {
      "constant": true,
      "inputs": [],
      "name": "cjlogAddress",
      "outputs": [
        {
          "name": "",
          "type": "address"
        }
      ],
      "payable": false,
      "stateMutability": "view",
      "type": "function"
    },
    {
      "constant": true,
      "inputs": [],
      "name": "hynixAddress",
      "outputs": [
        {
          "name": "",
          "type": "address"
        }
      ],
      "payable": false,
      "stateMutability": "view",
      "type": "function"
    },
    {
      "constant": false,
      "inputs": [
        {
          "name": "_hynix",
          "type": "address"
        },
        {
          "name": "_lge",
          "type": "address"
        },
        {
          "name": "_cjlog",
          "type": "address"
        },
        {
          "name": "_idbins",
          "type": "address"
        },
        {
          "name": "_kebhana",
          "type": "address"
        }
      ],
      "name": "setStakeHolder",
      "outputs": [],
      "payable": false,
      "stateMutability": "nonpayable",
      "type": "function"
    },
    {
      "constant": false,
      "inputs": [
        {
          "name": "_type",
          "type": "uint256"
        },
        {
          "name": "_txId",
          "type": "uint256"
        }
      ],
      "name": "procOrder",
      "outputs": [],
      "payable": false,
      "stateMutability": "nonpayable",
      "type": "function"
    },
    {
      "constant": true,
      "inputs": [
        {
          "name": "_txId",
          "type": "uint256"
        }
      ],
      "name": "getOrder",
      "outputs": [
        {
          "name": "",
          "type": "uint256"
        }
      ],
      "payable": false,
      "stateMutability": "view",
      "type": "function"
    }
  ],
  "bytecode": "0x6080604052336000806101000a81548173ffffffffffffffffffffffffffffffffffffffff021916908373ffffffffffffffffffffffffffffffffffffffff16021790555073e2b1b3f6aaeef2d8f60b9ccf4e0c888257424854600260006101000a81548173ffffffffffffffffffffffffffffffffffffffff021916908373ffffffffffffffffffffffffffffffffffffffff160217905550734ad61068b14553375d5c5e851c0883dec10e9da8600360006101000a81548173ffffffffffffffffffffffffffffffffffffffff021916908373ffffffffffffffffffffffffffffffffffffffff16021790555073b18efd74f248781ac0d9cb70b67dba2f0000f5fd600460006101000a81548173ffffffffffffffffffffffffffffffffffffffff021916908373ffffffffffffffffffffffffffffffffffffffff160217905550733ef1b73ab4b6caddb7274ef128de82fd01e70b9c600560006101000a81548173ffffffffffffffffffffffffffffffffffffffff021916908373ffffffffffffffffffffffffffffffffffffffff1602179055507332522a4fdd5910a0bdc59e93586a7ed386cca656600660006101000a81548173ffffffffffffffffffffffffffffffffffffffff021916908373ffffffffffffffffffffffffffffffffffffffff1602179055503480156101f957600080fd5b50610901806102096000396000f30060806040526004361061008e576000357c0100000000000000000000000000000000000000000000000000000000900463ffffffff1680630f3a28b7146100935780631b4c4fed146100ca57806350eee7f1146101215780638ab84031146101785780639cf17ad31461023b578063d09ef24114610292578063e493e683146102d3578063f680f4221461032a575b600080fd5b34801561009f57600080fd5b506100c86004803603810190808035906020019092919080359060200190929190505050610381565b005b3480156100d657600080fd5b506100df61064d565b604051808273ffffffffffffffffffffffffffffffffffffffff1673ffffffffffffffffffffffffffffffffffffffff16815260200191505060405180910390f35b34801561012d57600080fd5b50610136610673565b604051808273ffffffffffffffffffffffffffffffffffffffff1673ffffffffffffffffffffffffffffffffffffffff16815260200191505060405180910390f35b34801561018457600080fd5b50610239600480360381019080803573ffffffffffffffffffffffffffffffffffffffff169060200190929190803573ffffffffffffffffffffffffffffffffffffffff169060200190929190803573ffffffffffffffffffffffffffffffffffffffff169060200190929190803573ffffffffffffffffffffffffffffffffffffffff169060200190929190803573ffffffffffffffffffffffffffffffffffffffff169060200190929190505050610699565b005b34801561024757600080fd5b50610250610840565b604051808273ffffffffffffffffffffffffffffffffffffffff1673ffffffffffffffffffffffffffffffffffffffff16815260200191505060405180910390f35b34801561029e57600080fd5b506102bd60048036038101908080359060200190929190505050610866565b6040518082815260200191505060405180910390f35b3480156102df57600080fd5b506102e8610889565b604051808273ffffffffffffffffffffffffffffffffffffffff1673ffffffffffffffffffffffffffffffffffffffff16815260200191505060405180910390f35b34801561033657600080fd5b5061033f6108af565b604051808273ffffffffffffffffffffffffffffffffffffffff1673ffffffffffffffffffffffffffffffffffffffff16815260200191505060405180910390f35b60008214156103eb57600360009054906101000a900473ffffffffffffffffffffffffffffffffffffffff1673ffffffffffffffffffffffffffffffffffffffff163373ffffffffffffffffffffffffffffffffffffffff161415156103e657600080fd5b6105fe565b600182141561045557600260009054906101000a900473ffffffffffffffffffffffffffffffffffffffff1673ffffffffffffffffffffffffffffffffffffffff163373ffffffffffffffffffffffffffffffffffffffff1614151561045057600080fd5b6105fd565b60028214156104bf57600260009054906101000a900473ffffffffffffffffffffffffffffffffffffffff1673ffffffffffffffffffffffffffffffffffffffff163373ffffffffffffffffffffffffffffffffffffffff161415156104ba57600080fd5b6105fc565b600382141561052957600460009054906101000a900473ffffffffffffffffffffffffffffffffffffffff1673ffffffffffffffffffffffffffffffffffffffff163373ffffffffffffffffffffffffffffffffffffffff1614151561052457600080fd5b6105fb565b600482141561059357600360009054906101000a900473ffffffffffffffffffffffffffffffffffffffff1673ffffffffffffffffffffffffffffffffffffffff163373ffffffffffffffffffffffffffffffffffffffff1614151561058e57600080fd5b6105fa565b60058214156105f957600660009054906101000a900473ffffffffffffffffffffffffffffffffffffffff1673ffffffffffffffffffffffffffffffffffffffff163373ffffffffffffffffffffffffffffffffffffffff161415156105f857600080fd5b5b5b5b5b5b5b6001600090806001815401808255809150509060018203906000526020600020016000909192909190915055508160018281548110151561063b57fe5b90600052602060002001819055505050565b600360009054906101000a900473ffffffffffffffffffffffffffffffffffffffff1681565b600660009054906101000a900473ffffffffffffffffffffffffffffffffffffffff1681565b6000809054906101000a900473ffffffffffffffffffffffffffffffffffffffff1673ffffffffffffffffffffffffffffffffffffffff163373ffffffffffffffffffffffffffffffffffffffff161415156106f457600080fd5b84600260006101000a81548173ffffffffffffffffffffffffffffffffffffffff021916908373ffffffffffffffffffffffffffffffffffffffff16021790555083600360006101000a81548173ffffffffffffffffffffffffffffffffffffffff021916908373ffffffffffffffffffffffffffffffffffffffff16021790555082600460006101000a81548173ffffffffffffffffffffffffffffffffffffffff021916908373ffffffffffffffffffffffffffffffffffffffff16021790555081600560006101000a81548173ffffffffffffffffffffffffffffffffffffffff021916908373ffffffffffffffffffffffffffffffffffffffff16021790555080600660006101000a81548173ffffffffffffffffffffffffffffffffffffffff021916908373ffffffffffffffffffffffffffffffffffffffff1602179055505050505050565b600560009054906101000a900473ffffffffffffffffffffffffffffffffffffffff1681565b600060018281548110151561087757fe5b90600052602060002001549050919050565b600460009054906101000a900473ffffffffffffffffffffffffffffffffffffffff1681565b600260009054906101000a900473ffffffffffffffffffffffffffffffffffffffff16815600a165627a7a723058206b08f8b498aedfd45f00ad790a9fad2b54d4bc62ff141a02084e5943e13c1a6a0029",
  "source": "pragma solidity 0.4.24;\n\ncontract Demo {\n\n   address owner = msg.sender;\n\n   uint[] orders;\n\n   address public hynixAddress = 0xe2b1b3f6aaeef2d8f60b9ccf4e0c888257424854;\n   address public lgeAddress = 0x4ad61068b14553375d5c5e851c0883dec10e9da8;\n   address public cjlogAddress = 0xb18efd74f248781ac0d9cb70b67dba2f0000f5fd;\n   address public idbinsAddress = 0x3ef1b73ab4b6caddb7274ef128de82fd01e70b9c;\n   address public kebhanaAddress = 0x32522a4fdd5910a0bdc59e93586a7ed386cca656;\n\n   modifier onlyOwner() {\n       require(msg.sender == owner);\n       _;\n   }\n\n   function setStakeHolder(address _hynix, address _lge, address _cjlog, address _idbins, address _kebhana) onlyOwner public{\n       hynixAddress = _hynix;\n       lgeAddress = _lge;\n       cjlogAddress = _cjlog;\n       idbinsAddress = _idbins;\n       kebhanaAddress = _kebhana;\n   }\n\n   //0:order, 1:prod, 2:send, 3:delivery, 4:receive, 5:payment\n   function procOrder(uint _type, uint _txId) public{\n\n       if (_type == 0){\n           require(msg.sender == lgeAddress);\n\n       }else if (_type == 1){\n           require(msg.sender == hynixAddress);\n\n       }else if (_type == 2){\n           require(msg.sender == hynixAddress);\n\n       }else if (_type == 3){\n           require(msg.sender == cjlogAddress);\n\n       }else if (_type == 4){\n           require(msg.sender == lgeAddress);\n\n       }else if (_type == 5){\n           require(msg.sender == kebhanaAddress);\n\n       }\n\n       orders.push(0);\n       orders[_txId] = _type;\n   }\n\n   function getOrder(uint _txId) public view returns (uint) {\n       return orders[_txId];\n   }\n\n}",
  "sourcePath": "/Users/yunjisang/Documents/ethereum-workspaces/consensys/excercise/orderSolidity/contracts/Demo.sol",
  "compiler": {
    "name": "solc",
    "version": "0.4.24+commit.e67f0147.Emscripten.clang"
  },
  "schemaVersion": "2.0.1",
  "updatedAt": "2018-12-14T07:33:16.570Z"
}